{
  "_format": "hh-sol-artifact-1",
  "contractName": "Moonbox",
  "sourceName": "contracts/Moonbox.sol",
  "abi": [
    {
      "inputs": [
        {
          "internalType": "string",
          "name": "name_",
          "type": "string"
        },
        {
          "internalType": "string",
          "name": "symbol_",
          "type": "string"
        }
      ],
      "stateMutability": "nonpayable",
      "type": "constructor"
    },
    {
      "anonymous": false,
      "inputs": [
        {
          "indexed": false,
          "internalType": "uint256",
          "name": "promptId",
          "type": "uint256"
        },
        {
          "indexed": false,
          "internalType": "string",
          "name": "prompt",
          "type": "string"
        }
      ],
      "name": "AddPrompt",
      "type": "event"
    },
    {
      "anonymous": false,
      "inputs": [
        {
          "indexed": true,
          "internalType": "address",
          "name": "owner",
          "type": "address"
        },
        {
          "indexed": true,
          "internalType": "address",
          "name": "approved",
          "type": "address"
        },
        {
          "indexed": true,
          "internalType": "uint256",
          "name": "tokenId",
          "type": "uint256"
        }
      ],
      "name": "Approval",
      "type": "event"
    },
    {
      "anonymous": false,
      "inputs": [
        {
          "indexed": true,
          "internalType": "address",
          "name": "owner",
          "type": "address"
        },
        {
          "indexed": true,
          "internalType": "address",
          "name": "operator",
          "type": "address"
        },
        {
          "indexed": false,
          "internalType": "bool",
          "name": "approved",
          "type": "bool"
        }
      ],
      "name": "ApprovalForAll",
      "type": "event"
    },
    {
      "anonymous": false,
      "inputs": [
        {
          "components": [
            {
              "internalType": "address",
              "name": "containerAddr",
              "type": "address"
            },
            {
              "internalType": "uint256",
              "name": "containerId",
              "type": "uint256"
            },
            {
              "internalType": "uint256",
              "name": "promptId",
              "type": "uint256"
            },
            {
              "internalType": "uint256",
              "name": "soulId",
              "type": "uint256"
            }
          ],
          "indexed": false,
          "internalType": "struct Moonbox.Info",
          "name": "info",
          "type": "tuple"
        },
        {
          "indexed": false,
          "internalType": "address",
          "name": "user",
          "type": "address"
        }
      ],
      "name": "Generate",
      "type": "event"
    },
    {
      "anonymous": false,
      "inputs": [
        {
          "indexed": true,
          "internalType": "address",
          "name": "from",
          "type": "address"
        },
        {
          "indexed": true,
          "internalType": "address",
          "name": "to",
          "type": "address"
        },
        {
          "indexed": true,
          "internalType": "uint256",
          "name": "tokenId",
          "type": "uint256"
        }
      ],
      "name": "Transfer",
      "type": "event"
    },
    {
      "inputs": [
        {
          "internalType": "string",
          "name": "_prompt",
          "type": "string"
        }
      ],
      "name": "addPrompt",
      "outputs": [],
      "stateMutability": "nonpayable",
      "type": "function"
    },
    {
      "inputs": [
        {
          "internalType": "address",
          "name": "to",
          "type": "address"
        },
        {
          "internalType": "uint256",
          "name": "tokenId",
          "type": "uint256"
        }
      ],
      "name": "approve",
      "outputs": [],
      "stateMutability": "nonpayable",
      "type": "function"
    },
    {
      "inputs": [
        {
          "internalType": "address",
          "name": "owner",
          "type": "address"
        }
      ],
      "name": "balanceOf",
      "outputs": [
        {
          "internalType": "uint256",
          "name": "",
          "type": "uint256"
        }
      ],
      "stateMutability": "view",
      "type": "function"
    },
    {
      "inputs": [
        {
          "internalType": "address",
          "name": "_containerAddr",
          "type": "address"
        },
        {
          "internalType": "uint256",
          "name": "_containerId",
          "type": "uint256"
        },
        {
          "internalType": "uint256",
          "name": "_promptId",
          "type": "uint256"
        }
      ],
      "name": "generate",
      "outputs": [],
      "stateMutability": "nonpayable",
      "type": "function"
    },
    {
      "inputs": [
        {
          "internalType": "uint256",
          "name": "tokenId",
          "type": "uint256"
        }
      ],
      "name": "getApproved",
      "outputs": [
        {
          "internalType": "address",
          "name": "",
          "type": "address"
        }
      ],
      "stateMutability": "view",
      "type": "function"
    },
    {
      "inputs": [
        {
          "internalType": "address",
          "name": "",
          "type": "address"
        }
      ],
      "name": "infos",
      "outputs": [
        {
          "internalType": "address",
          "name": "containerAddr",
          "type": "address"
        },
        {
          "internalType": "uint256",
          "name": "containerId",
          "type": "uint256"
        },
        {
          "internalType": "uint256",
          "name": "promptId",
          "type": "uint256"
        },
        {
          "internalType": "uint256",
          "name": "soulId",
          "type": "uint256"
        }
      ],
      "stateMutability": "view",
      "type": "function"
    },
    {
      "inputs": [
        {
          "internalType": "address",
          "name": "owner",
          "type": "address"
        },
        {
          "internalType": "address",
          "name": "operator",
          "type": "address"
        }
      ],
      "name": "isApprovedForAll",
      "outputs": [
        {
          "internalType": "bool",
          "name": "",
          "type": "bool"
        }
      ],
      "stateMutability": "view",
      "type": "function"
    },
    {
      "inputs": [],
      "name": "lastPromptId",
      "outputs": [
        {
          "internalType": "uint256",
          "name": "",
          "type": "uint256"
        }
      ],
      "stateMutability": "view",
      "type": "function"
    },
    {
      "inputs": [],
      "name": "lastSoulId",
      "outputs": [
        {
          "internalType": "uint256",
          "name": "",
          "type": "uint256"
        }
      ],
      "stateMutability": "view",
      "type": "function"
    },
    {
      "inputs": [],
      "name": "name",
      "outputs": [
        {
          "internalType": "string",
          "name": "",
          "type": "string"
        }
      ],
      "stateMutability": "view",
      "type": "function"
    },
    {
      "inputs": [],
      "name": "owner",
      "outputs": [
        {
          "internalType": "address payable",
          "name": "",
          "type": "address"
        }
      ],
      "stateMutability": "view",
      "type": "function"
    },
    {
      "inputs": [
        {
          "internalType": "uint256",
          "name": "tokenId",
          "type": "uint256"
        }
      ],
      "name": "ownerOf",
      "outputs": [
        {
          "internalType": "address",
          "name": "",
          "type": "address"
        }
      ],
      "stateMutability": "view",
      "type": "function"
    },
    {
      "inputs": [
        {
          "internalType": "uint256",
          "name": "",
          "type": "uint256"
        }
      ],
      "name": "prompts",
      "outputs": [
        {
          "internalType": "string",
          "name": "",
          "type": "string"
        }
      ],
      "stateMutability": "view",
      "type": "function"
    },
    {
      "inputs": [
        {
          "internalType": "address",
          "name": "from",
          "type": "address"
        },
        {
          "internalType": "address",
          "name": "to",
          "type": "address"
        },
        {
          "internalType": "uint256",
          "name": "tokenId",
          "type": "uint256"
        }
      ],
      "name": "safeTransferFrom",
      "outputs": [],
      "stateMutability": "nonpayable",
      "type": "function"
    },
    {
      "inputs": [
        {
          "internalType": "address",
          "name": "from",
          "type": "address"
        },
        {
          "internalType": "address",
          "name": "to",
          "type": "address"
        },
        {
          "internalType": "uint256",
          "name": "tokenId",
          "type": "uint256"
        },
        {
          "internalType": "bytes",
          "name": "data",
          "type": "bytes"
        }
      ],
      "name": "safeTransferFrom",
      "outputs": [],
      "stateMutability": "nonpayable",
      "type": "function"
    },
    {
      "inputs": [
        {
          "internalType": "address",
          "name": "operator",
          "type": "address"
        },
        {
          "internalType": "bool",
          "name": "approved",
          "type": "bool"
        }
      ],
      "name": "setApprovalForAll",
      "outputs": [],
      "stateMutability": "nonpayable",
      "type": "function"
    },
    {
      "inputs": [
        {
          "internalType": "bytes4",
          "name": "interfaceId",
          "type": "bytes4"
        }
      ],
      "name": "supportsInterface",
      "outputs": [
        {
          "internalType": "bool",
          "name": "",
          "type": "bool"
        }
      ],
      "stateMutability": "view",
      "type": "function"
    },
    {
      "inputs": [],
      "name": "symbol",
      "outputs": [
        {
          "internalType": "string",
          "name": "",
          "type": "string"
        }
      ],
      "stateMutability": "view",
      "type": "function"
    },
    {
      "inputs": [
        {
          "internalType": "uint256",
          "name": "index",
          "type": "uint256"
        }
      ],
      "name": "tokenByIndex",
      "outputs": [
        {
          "internalType": "uint256",
          "name": "",
          "type": "uint256"
        }
      ],
      "stateMutability": "view",
      "type": "function"
    },
    {
      "inputs": [
        {
          "internalType": "address",
          "name": "owner",
          "type": "address"
        },
        {
          "internalType": "uint256",
          "name": "index",
          "type": "uint256"
        }
      ],
      "name": "tokenOfOwnerByIndex",
      "outputs": [
        {
          "internalType": "uint256",
          "name": "",
          "type": "uint256"
        }
      ],
      "stateMutability": "view",
      "type": "function"
    },
    {
      "inputs": [
        {
          "internalType": "uint256",
          "name": "tokenId",
          "type": "uint256"
        }
      ],
      "name": "tokenURI",
      "outputs": [
        {
          "internalType": "string",
          "name": "",
          "type": "string"
        }
      ],
      "stateMutability": "view",
      "type": "function"
    },
    {
      "inputs": [],
      "name": "totalSupply",
      "outputs": [
        {
          "internalType": "uint256",
          "name": "",
          "type": "uint256"
        }
      ],
      "stateMutability": "view",
      "type": "function"
    },
    {
      "inputs": [
        {
          "internalType": "address",
          "name": "from",
          "type": "address"
        },
        {
          "internalType": "address",
          "name": "to",
          "type": "address"
        },
        {
          "internalType": "uint256",
          "name": "tokenId",
          "type": "uint256"
        }
      ],
      "name": "transferFrom",
      "outputs": [],
      "stateMutability": "nonpayable",
      "type": "function"
    },
    {
      "inputs": [],
      "name": "unlockTime",
      "outputs": [
        {
          "internalType": "uint256",
          "name": "",
          "type": "uint256"
        }
      ],
      "stateMutability": "view",
      "type": "function"
    }
  ],
  "bytecode": "0x60806040526000600e556000600f553480156200001b57600080fd5b506040516200201f3803806200201f8339810160408190526200003e916200012d565b818160006200004e838262000226565b5060016200005d828262000226565b5050505050620002f2565b634e487b7160e01b600052604160045260246000fd5b600082601f8301126200009057600080fd5b81516001600160401b0380821115620000ad57620000ad62000068565b604051601f8301601f19908116603f01168101908282118183101715620000d857620000d862000068565b81604052838152602092508683858801011115620000f557600080fd5b600091505b83821015620001195785820183015181830184015290820190620000fa565b600093810190920192909252949350505050565b600080604083850312156200014157600080fd5b82516001600160401b03808211156200015957600080fd5b62000167868387016200007e565b935060208501519150808211156200017e57600080fd5b506200018d858286016200007e565b9150509250929050565b600181811c90821680620001ac57607f821691505b602082108103620001cd57634e487b7160e01b600052602260045260246000fd5b50919050565b601f8211156200022157600081815260208120601f850160051c81016020861015620001fc5750805b601f850160051c820191505b818110156200021d5782815560010162000208565b5050505b505050565b81516001600160401b0381111562000242576200024262000068565b6200025a8162000253845462000197565b84620001d3565b602080601f831160018114620002925760008415620002795750858301515b600019600386901b1c1916600185901b1785556200021d565b600085815260208120601f198616915b82811015620002c357888601518255948401946001909101908401620002a2565b5085821015620002e25787850151600019600388901b60f8161c191681555b5050505050600190811b01905550565b611d1d80620003026000396000f3fe608060405234801561001057600080fd5b50600436106101585760003560e01c80636352211e116100c3578063b88d4fde1161007c578063b88d4fde146102ba578063bc94b39c146102cd578063c6ddb642146102e0578063c87b56dd14610349578063d4cf9af71461035c578063e985e9c51461036f57600080fd5b80636352211e1461025357806370a08231146102665780638da5cb5b1461027957806395d89b411461028c5780639fce78d814610294578063a22cb465146102a757600080fd5b8063251c1aa311610115578063251c1aa3146101ff5780632f745c591461020857806331fde6cf1461021b57806342842e0e146102245780634f6ccce714610237578063514f91681461024a57600080fd5b806301ffc9a71461015d57806306fdde0314610185578063081812fc1461019a578063095ea7b3146101c557806318160ddd146101da57806323b872dd146101ec575b600080fd5b61017061016b366004611682565b6103ab565b60405190151581526020015b60405180910390f35b61018d6103d6565b60405161017c91906116ef565b6101ad6101a8366004611702565b610468565b6040516001600160a01b03909116815260200161017c565b6101d86101d3366004611737565b61048f565b005b6008545b60405190815260200161017c565b6101d86101fa366004611761565b6105a9565b6101de600a5481565b6101de610216366004611737565b6105da565b6101de600f5481565b6101d8610232366004611761565b610670565b6101de610245366004611702565b61068b565b6101de600e5481565b6101ad610261366004611702565b61071e565b6101de61027436600461179d565b61077e565b600b546101ad906001600160a01b031681565b61018d610804565b6101d86102a2366004611844565b610813565b6101d86102b536600461188d565b610882565b6101d86102c83660046118c9565b610891565b6101d86102db366004611945565b6108c9565b61031f6102ee36600461179d565b600d6020526000908152604090208054600182015460028301546003909301546001600160a01b0390921692909184565b604080516001600160a01b039095168552602085019390935291830152606082015260800161017c565b61018d610357366004611702565b6109e1565b61018d61036a366004611702565b610a55565b61017061037d366004611978565b6001600160a01b03918216600090815260056020908152604080832093909416825291909152205460ff1690565b60006001600160e01b0319821663780e9d6360e01b14806103d057506103d082610aef565b92915050565b6060600080546103e5906119ab565b80601f0160208091040260200160405190810160405280929190818152602001828054610411906119ab565b801561045e5780601f106104335761010080835404028352916020019161045e565b820191906000526020600020905b81548152906001019060200180831161044157829003601f168201915b5050505050905090565b600061047382610b3f565b506000908152600460205260409020546001600160a01b031690565b600061049a8261071e565b9050806001600160a01b0316836001600160a01b03160361050c5760405162461bcd60e51b815260206004820152602160248201527f4552433732313a20617070726f76616c20746f2063757272656e74206f776e656044820152603960f91b60648201526084015b60405180910390fd5b336001600160a01b03821614806105285750610528813361037d565b61059a5760405162461bcd60e51b815260206004820152603d60248201527f4552433732313a20617070726f76652063616c6c6572206973206e6f7420746f60448201527f6b656e206f776e6572206f7220617070726f76656420666f7220616c6c0000006064820152608401610503565b6105a48383610ba1565b505050565b6105b33382610c0f565b6105cf5760405162461bcd60e51b8152600401610503906119e5565b6105a4838383610c8e565b60006105e58361077e565b82106106475760405162461bcd60e51b815260206004820152602b60248201527f455243373231456e756d657261626c653a206f776e657220696e646578206f7560448201526a74206f6620626f756e647360a81b6064820152608401610503565b506001600160a01b03919091166000908152600660209081526040808320938352929052205490565b6105a483838360405180602001604052806000815250610891565b600061069660085490565b82106106f95760405162461bcd60e51b815260206004820152602c60248201527f455243373231456e756d657261626c653a20676c6f62616c20696e646578206f60448201526b7574206f6620626f756e647360a01b6064820152608401610503565b6008828154811061070c5761070c611a32565b90600052602060002001549050919050565b6000818152600260205260408120546001600160a01b0316806103d05760405162461bcd60e51b8152602060048201526018602482015277115490cdcc8c4e881a5b9d985b1a59081d1bdad95b88125160421b6044820152606401610503565b60006001600160a01b0382166107e85760405162461bcd60e51b815260206004820152602960248201527f4552433732313a2061646472657373207a65726f206973206e6f7420612076616044820152683634b21037bbb732b960b91b6064820152608401610503565b506001600160a01b031660009081526003602052604090205490565b6060600180546103e5906119ab565b600e805490600061082383611a5e565b9091555050600e546000908152600c602052604090206108438282611ac5565b507fafb246e6a8d378e3872b541510d390f1506daae83d4d360e7d5c56690976b4be600e5482604051610877929190611b85565b60405180910390a150565b61088d338383610dff565b5050565b61089b3383610c0f565b6108b75760405162461bcd60e51b8152600401610503906119e5565b6108c384848484610ecd565b50505050565b336000908152600d6020526040902060030154156108fd57336000908152600d60205260409020600301546108fd90610f00565b600f805490600061090d83611a5e565b9091555050600f5461091f3382610fa3565b60408051608080820183526001600160a01b03878116835260208084018881528486018881526060808701898152336000818152600d87528a9020895181546001600160a01b0319169816978817815585516001820155845160028201558251600390910155895196875293519486019490945290519684019690965290519482019490945290810192909252907f76a67200a934b6b4233175622f03a989cf85aa4b549b64149934b61bf1321fab9060a00160405180910390a15050505050565b60606109ec82610b3f565b6000610a0360408051602081019091526000815290565b90506000815111610a235760405180602001604052806000815250610a4e565b80610a2d8461113c565b604051602001610a3e929190611b9e565b6040516020818303038152906040525b9392505050565b600c6020526000908152604090208054610a6e906119ab565b80601f0160208091040260200160405190810160405280929190818152602001828054610a9a906119ab565b8015610ae75780601f10610abc57610100808354040283529160200191610ae7565b820191906000526020600020905b815481529060010190602001808311610aca57829003601f168201915b505050505081565b60006001600160e01b031982166380ac58cd60e01b1480610b2057506001600160e01b03198216635b5e139f60e01b145b806103d057506301ffc9a760e01b6001600160e01b03198316146103d0565b6000818152600260205260409020546001600160a01b0316610b9e5760405162461bcd60e51b8152602060048201526018602482015277115490cdcc8c4e881a5b9d985b1a59081d1bdad95b88125160421b6044820152606401610503565b50565b600081815260046020526040902080546001600160a01b0319166001600160a01b0384169081179091558190610bd68261071e565b6001600160a01b03167f8c5be1e5ebec7d5bd14f71427d1e84f3dd0314c0f7b2291e5b200ac8c7c3b92560405160405180910390a45050565b600080610c1b8361071e565b9050806001600160a01b0316846001600160a01b03161480610c6257506001600160a01b0380821660009081526005602090815260408083209388168352929052205460ff165b80610c865750836001600160a01b0316610c7b84610468565b6001600160a01b0316145b949350505050565b826001600160a01b0316610ca18261071e565b6001600160a01b031614610cc75760405162461bcd60e51b815260040161050390611bcd565b6001600160a01b038216610d295760405162461bcd60e51b8152602060048201526024808201527f4552433732313a207472616e7366657220746f20746865207a65726f206164646044820152637265737360e01b6064820152608401610503565b610d3683838360016111cf565b826001600160a01b0316610d498261071e565b6001600160a01b031614610d6f5760405162461bcd60e51b815260040161050390611bcd565b600081815260046020908152604080832080546001600160a01b03199081169091556001600160a01b0387811680865260038552838620805460001901905590871680865283862080546001019055868652600290945282852080549092168417909155905184937fddf252ad1be2c89b69c2b068fc378daa952ba7f163c4a11628f55a4df523b3ef91a4505050565b816001600160a01b0316836001600160a01b031603610e605760405162461bcd60e51b815260206004820152601960248201527f4552433732313a20617070726f766520746f2063616c6c6572000000000000006044820152606401610503565b6001600160a01b03838116600081815260056020908152604080832094871680845294825291829020805460ff191686151590811790915591519182527f17307eab39ab6107e8899845ad3d59bd9653f200f220920489ca2b5937696c31910160405180910390a3505050565b610ed8848484610c8e565b610ee484848484611303565b6108c35760405162461bcd60e51b815260040161050390611c12565b6000610f0b8261071e565b9050610f1b8160008460016111cf565b610f248261071e565b600083815260046020908152604080832080546001600160a01b03199081169091556001600160a01b0385168085526003845282852080546000190190558785526002909352818420805490911690555192935084927fddf252ad1be2c89b69c2b068fc378daa952ba7f163c4a11628f55a4df523b3ef908390a45050565b6001600160a01b038216610ff95760405162461bcd60e51b815260206004820181905260248201527f4552433732313a206d696e7420746f20746865207a65726f20616464726573736044820152606401610503565b6000818152600260205260409020546001600160a01b03161561105e5760405162461bcd60e51b815260206004820152601c60248201527f4552433732313a20746f6b656e20616c7265616479206d696e746564000000006044820152606401610503565b61106c6000838360016111cf565b6000818152600260205260409020546001600160a01b0316156110d15760405162461bcd60e51b815260206004820152601c60248201527f4552433732313a20746f6b656e20616c7265616479206d696e746564000000006044820152606401610503565b6001600160a01b038216600081815260036020908152604080832080546001019055848352600290915280822080546001600160a01b0319168417905551839291907fddf252ad1be2c89b69c2b068fc378daa952ba7f163c4a11628f55a4df523b3ef908290a45050565b6060600061114983611404565b600101905060008167ffffffffffffffff811115611169576111696117b8565b6040519080825280601f01601f191660200182016040528015611193576020820181803683370190505b5090508181016020015b600019016f181899199a1a9b1b9c1cb0b131b232b360811b600a86061a8153600a850494508461119d57509392505050565b600181111561123e5760405162461bcd60e51b815260206004820152603560248201527f455243373231456e756d657261626c653a20636f6e7365637574697665207472604482015274185b9cd9995c9cc81b9bdd081cdd5c1c1bdc9d1959605a1b6064820152608401610503565b816001600160a01b03851661129a5761129581600880546000838152600960205260408120829055600182018355919091527ff3f7a9fe364faab93b216da50a3214154f22a0a2b415b23a84c8169e8b636ee30155565b6112bd565b836001600160a01b0316856001600160a01b0316146112bd576112bd85826114dc565b6001600160a01b0384166112d9576112d481611579565b6112fc565b846001600160a01b0316846001600160a01b0316146112fc576112fc8482611628565b5050505050565b60006001600160a01b0384163b156113f957604051630a85bd0160e11b81526001600160a01b0385169063150b7a0290611347903390899088908890600401611c64565b6020604051808303816000875af1925050508015611382575060408051601f3d908101601f1916820190925261137f91810190611ca1565b60015b6113df573d8080156113b0576040519150601f19603f3d011682016040523d82523d6000602084013e6113b5565b606091505b5080516000036113d75760405162461bcd60e51b815260040161050390611c12565b805181602001fd5b6001600160e01b031916630a85bd0160e11b149050610c86565b506001949350505050565b60008072184f03e93ff9f4daa797ed6e38ed64bf6a1f0160401b83106114435772184f03e93ff9f4daa797ed6e38ed64bf6a1f0160401b830492506040015b6d04ee2d6d415b85acef8100000000831061146f576d04ee2d6d415b85acef8100000000830492506020015b662386f26fc10000831061148d57662386f26fc10000830492506010015b6305f5e10083106114a5576305f5e100830492506008015b61271083106114b957612710830492506004015b606483106114cb576064830492506002015b600a83106103d05760010192915050565b600060016114e98461077e565b6114f39190611cbe565b600083815260076020526040902054909150808214611546576001600160a01b03841660009081526006602090815260408083208584528252808320548484528184208190558352600790915290208190555b5060009182526007602090815260408084208490556001600160a01b039094168352600681528383209183525290812055565b60085460009061158b90600190611cbe565b600083815260096020526040812054600880549394509092849081106115b3576115b3611a32565b9060005260206000200154905080600883815481106115d4576115d4611a32565b600091825260208083209091019290925582815260099091526040808220849055858252812055600880548061160c5761160c611cd1565b6001900381819060005260206000200160009055905550505050565b60006116338361077e565b6001600160a01b039093166000908152600660209081526040808320868452825280832085905593825260079052919091209190915550565b6001600160e01b031981168114610b9e57600080fd5b60006020828403121561169457600080fd5b8135610a4e8161166c565b60005b838110156116ba5781810151838201526020016116a2565b50506000910152565b600081518084526116db81602086016020860161169f565b601f01601f19169290920160200192915050565b602081526000610a4e60208301846116c3565b60006020828403121561171457600080fd5b5035919050565b80356001600160a01b038116811461173257600080fd5b919050565b6000806040838503121561174a57600080fd5b6117538361171b565b946020939093013593505050565b60008060006060848603121561177657600080fd5b61177f8461171b565b925061178d6020850161171b565b9150604084013590509250925092565b6000602082840312156117af57600080fd5b610a4e8261171b565b634e487b7160e01b600052604160045260246000fd5b600067ffffffffffffffff808411156117e9576117e96117b8565b604051601f8501601f19908116603f01168101908282118183101715611811576118116117b8565b8160405280935085815286868601111561182a57600080fd5b858560208301376000602087830101525050509392505050565b60006020828403121561185657600080fd5b813567ffffffffffffffff81111561186d57600080fd5b8201601f8101841361187e57600080fd5b610c86848235602084016117ce565b600080604083850312156118a057600080fd5b6118a98361171b565b9150602083013580151581146118be57600080fd5b809150509250929050565b600080600080608085870312156118df57600080fd5b6118e88561171b565b93506118f66020860161171b565b925060408501359150606085013567ffffffffffffffff81111561191957600080fd5b8501601f8101871361192a57600080fd5b611939878235602084016117ce565b91505092959194509250565b60008060006060848603121561195a57600080fd5b6119638461171b565b95602085013595506040909401359392505050565b6000806040838503121561198b57600080fd5b6119948361171b565b91506119a26020840161171b565b90509250929050565b600181811c908216806119bf57607f821691505b6020821081036119df57634e487b7160e01b600052602260045260246000fd5b50919050565b6020808252602d908201527f4552433732313a2063616c6c6572206973206e6f7420746f6b656e206f776e6560408201526c1c881bdc88185c1c1c9bdd9959609a1b606082015260800190565b634e487b7160e01b600052603260045260246000fd5b634e487b7160e01b600052601160045260246000fd5b600060018201611a7057611a70611a48565b5060010190565b601f8211156105a457600081815260208120601f850160051c81016020861015611a9e5750805b601f850160051c820191505b81811015611abd57828155600101611aaa565b505050505050565b815167ffffffffffffffff811115611adf57611adf6117b8565b611af381611aed84546119ab565b84611a77565b602080601f831160018114611b285760008415611b105750858301515b600019600386901b1c1916600185901b178555611abd565b600085815260208120601f198616915b82811015611b5757888601518255948401946001909101908401611b38565b5085821015611b755787850151600019600388901b60f8161c191681555b5050505050600190811b01905550565b828152604060208201526000610c8660408301846116c3565b60008351611bb081846020880161169f565b835190830190611bc481836020880161169f565b01949350505050565b60208082526025908201527f4552433732313a207472616e736665722066726f6d20696e636f72726563742060408201526437bbb732b960d91b606082015260800190565b60208082526032908201527f4552433732313a207472616e7366657220746f206e6f6e20455243373231526560408201527131b2b4bb32b91034b6b83632b6b2b73a32b960711b606082015260800190565b6001600160a01b0385811682528416602082015260408101839052608060608201819052600090611c97908301846116c3565b9695505050505050565b600060208284031215611cb357600080fd5b8151610a4e8161166c565b818103818111156103d0576103d0611a48565b634e487b7160e01b600052603160045260246000fdfea264697066735822122084e5fc1975bf969885e7c32db42469669b46d6f7f203d5971d55fe6fab377d3764736f6c63430008120033",
  "linkReferences": {},
  "deployedLinkReferences": {}
}